{
  "contractName": "MeuContrato",
  "abi": [
    {
      "inputs": [
        {
          "internalType": "uint256",
          "name": "_minPessoas",
          "type": "uint256"
        },
        {
          "internalType": "uint256",
          "name": "_maxPessoas",
          "type": "uint256"
        },
        {
          "internalType": "uint256",
          "name": "_taxaAdmin",
          "type": "uint256"
        }
      ],
      "stateMutability": "nonpayable",
      "type": "constructor"
    },
    {
      "inputs": [
        {
          "internalType": "uint256",
          "name": "",
          "type": "uint256"
        }
      ],
      "name": "aprovar",
      "outputs": [
        {
          "internalType": "address",
          "name": "carteiraUsuario",
          "type": "address"
        },
        {
          "internalType": "uint256",
          "name": "valorAparelho",
          "type": "uint256"
        },
        {
          "internalType": "uint256",
          "name": "IMEI",
          "type": "uint256"
        }
      ],
      "stateMutability": "view",
      "type": "function"
    },
    {
      "inputs": [
        {
          "internalType": "uint256",
          "name": "",
          "type": "uint256"
        }
      ],
      "name": "carteira",
      "outputs": [
        {
          "internalType": "address",
          "name": "carteiraUsuario",
          "type": "address"
        },
        {
          "internalType": "uint256",
          "name": "valorAparelho",
          "type": "uint256"
        },
        {
          "internalType": "uint256",
          "name": "saldo",
          "type": "uint256"
        },
        {
          "internalType": "uint256",
          "name": "IMEI",
          "type": "uint256"
        }
      ],
      "stateMutability": "view",
      "type": "function"
    },
    {
      "inputs": [
        {
          "internalType": "uint256",
          "name": "",
          "type": "uint256"
        }
      ],
      "name": "indenizacao",
      "outputs": [
        {
          "internalType": "address",
          "name": "carteiraUsuario",
          "type": "address"
        },
        {
          "internalType": "uint256",
          "name": "valorPedido",
          "type": "uint256"
        },
        {
          "internalType": "string",
          "name": "justificativa",
          "type": "string"
        },
        {
          "internalType": "uint256",
          "name": "imeiSolicitacao",
          "type": "uint256"
        }
      ],
      "stateMutability": "view",
      "type": "function"
    },
    {
      "inputs": [],
      "name": "maxPessoas",
      "outputs": [
        {
          "internalType": "uint256",
          "name": "",
          "type": "uint256"
        }
      ],
      "stateMutability": "view",
      "type": "function"
    },
    {
      "inputs": [],
      "name": "minPessoas",
      "outputs": [
        {
          "internalType": "uint256",
          "name": "",
          "type": "uint256"
        }
      ],
      "stateMutability": "view",
      "type": "function"
    },
    {
      "inputs": [],
      "name": "quantUsuario",
      "outputs": [
        {
          "internalType": "uint256",
          "name": "",
          "type": "uint256"
        }
      ],
      "stateMutability": "view",
      "type": "function"
    },
    {
      "inputs": [],
      "name": "taxaAdmin",
      "outputs": [
        {
          "internalType": "uint256",
          "name": "",
          "type": "uint256"
        }
      ],
      "stateMutability": "view",
      "type": "function"
    },
    {
      "inputs": [
        {
          "internalType": "uint256",
          "name": "valorAparelho",
          "type": "uint256"
        },
        {
          "internalType": "uint256",
          "name": "imei",
          "type": "uint256"
        }
      ],
      "name": "solicitacaoAprovacao",
      "outputs": [],
      "stateMutability": "nonpayable",
      "type": "function"
    },
    {
      "inputs": [],
      "name": "verSolicitacao",
      "outputs": [
        {
          "components": [
            {
              "internalType": "address",
              "name": "carteiraUsuario",
              "type": "address"
            },
            {
              "internalType": "uint256",
              "name": "valorAparelho",
              "type": "uint256"
            },
            {
              "internalType": "uint256",
              "name": "IMEI",
              "type": "uint256"
            }
          ],
          "internalType": "struct MeuContrato.Aprovar[]",
          "name": "",
          "type": "tuple[]"
        }
      ],
      "stateMutability": "view",
      "type": "function"
    },
    {
      "inputs": [
        {
          "internalType": "uint256",
          "name": "resposta",
          "type": "uint256"
        },
        {
          "internalType": "address",
          "name": "usuario",
          "type": "address"
        }
      ],
      "name": "aprovarSolicitacao",
      "outputs": [],
      "stateMutability": "nonpayable",
      "type": "function"
    },
    {
      "inputs": [
        {
          "internalType": "address",
          "name": "cliente",
          "type": "address"
        },
        {
          "internalType": "uint256",
          "name": "valorAssegurado",
          "type": "uint256"
        },
        {
          "internalType": "uint256",
          "name": "imei",
          "type": "uint256"
        }
      ],
      "name": "adicionarUsuario",
      "outputs": [],
      "stateMutability": "nonpayable",
      "type": "function"
    },
    {
      "inputs": [],
      "name": "adicionarDinheiro",
      "outputs": [],
      "stateMutability": "payable",
      "type": "function"
    },
    {
      "inputs": [],
      "name": "verSaldo",
      "outputs": [
        {
          "internalType": "uint256",
          "name": "",
          "type": "uint256"
        }
      ],
      "stateMutability": "view",
      "type": "function"
    },
    {
      "inputs": [],
      "name": "contratoSaldo",
      "outputs": [
        {
          "internalType": "uint256",
          "name": "",
          "type": "uint256"
        }
      ],
      "stateMutability": "view",
      "type": "function"
    },
    {
      "inputs": [],
      "name": "visualizarCarteiras",
      "outputs": [
        {
          "components": [
            {
              "internalType": "address",
              "name": "carteiraUsuario",
              "type": "address"
            },
            {
              "internalType": "uint256",
              "name": "valorAparelho",
              "type": "uint256"
            },
            {
              "internalType": "uint256",
              "name": "saldo",
              "type": "uint256"
            },
            {
              "internalType": "uint256",
              "name": "IMEI",
              "type": "uint256"
            }
          ],
          "internalType": "struct MeuContrato.Carteira[]",
          "name": "",
          "type": "tuple[]"
        }
      ],
      "stateMutability": "view",
      "type": "function"
    },
    {
      "inputs": [],
      "name": "verSaldoAdm",
      "outputs": [
        {
          "internalType": "uint256",
          "name": "",
          "type": "uint256"
        }
      ],
      "stateMutability": "view",
      "type": "function"
    },
    {
      "inputs": [
        {
          "internalType": "uint256",
          "name": "quantidade",
          "type": "uint256"
        }
      ],
      "name": "retirarTaxas",
      "outputs": [],
      "stateMutability": "nonpayable",
      "type": "function"
    },
    {
      "inputs": [
        {
          "internalType": "address",
          "name": "_indenizado",
          "type": "address"
        },
        {
          "internalType": "uint256",
          "name": "valorIndenizacao",
          "type": "uint256"
        },
        {
          "internalType": "uint256",
          "name": "_IMEI",
          "type": "uint256"
        }
      ],
      "name": "indenizar",
      "outputs": [],
      "stateMutability": "nonpayable",
      "type": "function"
    },
    {
      "inputs": [],
      "name": "maximoIndenizavel",
      "outputs": [
        {
          "internalType": "uint256",
          "name": "",
          "type": "uint256"
        }
      ],
      "stateMutability": "nonpayable",
      "type": "function"
    },
    {
      "inputs": [
        {
          "internalType": "uint256",
          "name": "valorID",
          "type": "uint256"
        },
        {
          "internalType": "string",
          "name": "justificativa",
          "type": "string"
        }
      ],
      "name": "solicitacaoIndenizacao",
      "outputs": [],
      "stateMutability": "nonpayable",
      "type": "function"
    },
    {
      "inputs": [],
      "name": "verSolicitacaoIndenizacao",
      "outputs": [
        {
          "components": [
            {
              "internalType": "address",
              "name": "carteiraUsuario",
              "type": "address"
            },
            {
              "internalType": "uint256",
              "name": "valorPedido",
              "type": "uint256"
            },
            {
              "internalType": "string",
              "name": "justificativa",
              "type": "string"
            },
            {
              "internalType": "uint256",
              "name": "imeiSolicitacao",
              "type": "uint256"
            }
          ],
          "internalType": "struct MeuContrato.Indenizacao[]",
          "name": "",
          "type": "tuple[]"
        }
      ],
      "stateMutability": "view",
      "type": "function"
    },
    {
      "inputs": [
        {
          "internalType": "uint256",
          "name": "imeiDaSolicitacao",
          "type": "uint256"
        }
      ],
      "name": "aprovarIndenizacao",
      "outputs": [],
      "stateMutability": "nonpayable",
      "type": "function"
    },
    {
      "inputs": [
        {
          "internalType": "address",
          "name": "_usuario",
          "type": "address"
        }
      ],
      "name": "removerUsuario",
      "outputs": [],
      "stateMutability": "nonpayable",
      "type": "function"
    },
    {
      "inputs": [
        {
          "internalType": "uint256",
          "name": "valor",
          "type": "uint256"
        }
      ],
      "name": "valorPosTaxa",
      "outputs": [
        {
          "internalType": "uint256",
          "name": "",
          "type": "uint256"
        }
      ],
      "stateMutability": "view",
      "type": "function"
    },
    {
      "inputs": [],
      "name": "viabilidadeContrato",
      "outputs": [
        {
          "internalType": "uint256",
          "name": "",
          "type": "uint256"
        }
      ],
      "stateMutability": "view",
      "type": "function"
    },
    {
      "inputs": [],
      "name": "teste3A",
      "outputs": [
        {
          "internalType": "uint256",
          "name": "",
          "type": "uint256"
        }
      ],
      "stateMutability": "nonpayable",
      "type": "function"
    },
    {
      "inputs": [],
      "name": "teste3B",
      "outputs": [
        {
          "internalType": "uint256",
          "name": "",
          "type": "uint256"
        }
      ],
      "stateMutability": "nonpayable",
      "type": "function"
    },
    {
      "inputs": [
        {
          "internalType": "uint256",
          "name": "saldo",
          "type": "uint256"
        },
        {
          "internalType": "uint256",
          "name": "valorAparelho",
          "type": "uint256"
        }
      ],
      "name": "maximoIndenizavelParaTeste",
      "outputs": [
        {
          "internalType": "uint256",
          "name": "",
          "type": "uint256"
        }
      ],
      "stateMutability": "nonpayable",
      "type": "function"
    }
  ],
  "bytecode": "0x60806040523480156200001157600080fd5b50604051620036ec380380620036ec833981810160405281019062000037919062000126565b6000808190555033600960006101000a81548173ffffffffffffffffffffffffffffffffffffffff021916908373ffffffffffffffffffffffffffffffffffffffff16021790555082600181905550816002819055508060038190555033600460006101000a81548173ffffffffffffffffffffffffffffffffffffffff021916908373ffffffffffffffffffffffffffffffffffffffff160217905550600060058190555050505062000182565b600080fd5b6000819050919050565b6200010081620000eb565b81146200010c57600080fd5b50565b6000815190506200012081620000f5565b92915050565b600080600060608486031215620001425762000141620000e6565b5b600062000152868287016200010f565b935050602062000165868287016200010f565b925050604062000178868287016200010f565b9150509250925092565b61355a80620001926000396000f3fe6080604052600436106101b75760003560e01c806390aa534b116100ec578063c0e331811161008a578063db05d7af11610064578063db05d7af14610616578063e539345e14610620578063e5be622f1461064b578063f7d4591814610676576101b7565b8063c0e3318114610599578063c33714bb146105c2578063d81723ab146105ed576101b7565b8063971760d1116100c6578063971760d1146104c957806398b1023d146105065780639b63e28114610531578063b7daf1031461055c576101b7565b806390aa534b1461044c5780639397fcf01461047557806393b3ab83146104a0576101b7565b806357ddb1ed1161015957806370c8638e1161013357806370c8638e1461037a57806372422155146103a35780637c797abe146103e35780638b3e51d614610423576101b7565b806357ddb1ed146102e557806362eecf7a146103245780636a38665f1461034f576101b7565b80632ed24584116101955780632ed245841461023b5780633514e736146102665780634a74e392146102915780634cbc8082146102bc576101b7565b8063016fc3cc146101bc5780630f1c7f18146101e557806324ca689314610210575b600080fd5b3480156101c857600080fd5b506101e360048036038101906101de919061251b565b6106a1565b005b3480156101f157600080fd5b506101fa61075e565b604051610207919061256a565b60405180910390f35b34801561021c57600080fd5b50610225610911565b604051610232919061256a565b60405180910390f35b34801561024757600080fd5b50610250610917565b60405161025d919061256a565b60405180910390f35b34801561027257600080fd5b5061027b6109ea565b60405161028891906126c6565b60405180910390f35b34801561029d57600080fd5b506102a6610b43565b6040516102b3919061256a565b60405180910390f35b3480156102c857600080fd5b506102e360048036038101906102de91906126e8565b610b71565b005b3480156102f157600080fd5b5061030c600480360381019061030791906126e8565b610cca565b60405161031b93929190612724565b60405180910390f35b34801561033057600080fd5b50610339610d24565b604051610346919061256a565b60405180910390f35b34801561035b57600080fd5b50610364610d52565b604051610371919061256a565b60405180910390f35b34801561038657600080fd5b506103a1600480360381019061039c9190612787565b610d58565b005b3480156103af57600080fd5b506103ca60048036038101906103c591906126e8565b610f07565b6040516103da9493929190612844565b60405180910390f35b3480156103ef57600080fd5b5061040a600480360381019061040591906126e8565b610fef565b60405161041a9493929190612890565b60405180910390f35b34801561042f57600080fd5b5061044a60048036038101906104459190612a0a565b61104f565b005b34801561045857600080fd5b50610473600480360381019061046e9190612a66565b611241565b005b34801561048157600080fd5b5061048a6113fe565b604051610497919061256a565b60405180910390f35b3480156104ac57600080fd5b506104c760048036038101906104c29190612a66565b61140b565b005b3480156104d557600080fd5b506104f060048036038101906104eb91906126e8565b6119cc565b6040516104fd919061256a565b60405180910390f35b34801561051257600080fd5b5061051b6119ff565b604051610528919061256a565b60405180910390f35b34801561053d57600080fd5b50610546611a05565b6040516105539190612c28565b60405180910390f35b34801561056857600080fd5b50610583600480360381019061057e919061251b565b611bf0565b604051610590919061256a565b60405180910390f35b3480156105a557600080fd5b506105c060048036038101906105bb91906126e8565b611c22565b005b3480156105ce57600080fd5b506105d7611d3f565b6040516105e4919061256a565b60405180910390f35b3480156105f957600080fd5b50610614600480360381019061060f9190612c4a565b611dc9565b005b61061e6122b5565b005b34801561062c57600080fd5b506106356123ee565b604051610642919061256a565b60405180910390f35b34801561065757600080fd5b506106606123f8565b60405161066d919061256a565b60405180910390f35b34801561068257600080fd5b5061068b6123fe565b6040516106989190612d8e565b60405180910390f35b600760405180606001604052803373ffffffffffffffffffffffffffffffffffffffff16815260200184815260200183815250908060018154018082558091505060019003906000526020600020906003020160009091909190915060008201518160000160006101000a81548173ffffffffffffffffffffffffffffffffffffffff021916908373ffffffffffffffffffffffffffffffffffffffff160217905550602082015181600101556040820151816002015550505050565b600080600060068054905081101561090b573373ffffffffffffffffffffffffffffffffffffffff166006828154811061079b5761079a612db0565b5b906000526020600020906004020160000160009054906101000a900473ffffffffffffffffffffffffffffffffffffffff1673ffffffffffffffffffffffffffffffffffffffff1603610901576002600682815481106107fe576107fd612db0565b5b90600052602060002090600402016001015461081a9190612e3d565b6006828154811061082e5761082d612db0565b5b9060005260206000209060040201600201541061086e576006818154811061085957610858612db0565b5b90600052602060002090600402016001015491505b60026006828154811061088457610883612db0565b5b9060005260206000209060040201600101546108a09190612e3d565b600682815481106108b4576108b3612db0565b5b90600052602060002090600402016002015411610900576002600682815481106108e1576108e0612db0565b5b9060005260206000209060040201600201546108fd9190612e6e565b91505b5b819250505061090e565b50505b90565b60025481565b600080600090505b6006805490508110156109e5573373ffffffffffffffffffffffffffffffffffffffff166006828154811061095757610956612db0565b5b906000526020600020906004020160000160009054906101000a900473ffffffffffffffffffffffffffffffffffffffff1673ffffffffffffffffffffffffffffffffffffffff16036109d257600681815481106109b8576109b7612db0565b5b9060005260206000209060040201600201549150506109e7565b80806109dd90612eb0565b91505061091f565b505b90565b6060600960009054906101000a900473ffffffffffffffffffffffffffffffffffffffff1673ffffffffffffffffffffffffffffffffffffffff163373ffffffffffffffffffffffffffffffffffffffff1614610a7c576040517f08c379a0000000000000000000000000000000000000000000000000000000008152600401610a7390612f6a565b60405180910390fd5b6007805480602002602001604051908101604052809291908181526020016000905b82821015610b3a57838290600052602060002090600302016040518060600160405290816000820160009054906101000a900473ffffffffffffffffffffffffffffffffffffffff1673ffffffffffffffffffffffffffffffffffffffff1673ffffffffffffffffffffffffffffffffffffffff1681526020016001820154815260200160028201548152505081526020019060010190610a9e565b50505050905090565b60006007600081548110610b5a57610b59612db0565b5b906000526020600020906003020160010154905090565b600960009054906101000a900473ffffffffffffffffffffffffffffffffffffffff1673ffffffffffffffffffffffffffffffffffffffff163373ffffffffffffffffffffffffffffffffffffffff1614610c01576040517f08c379a0000000000000000000000000000000000000000000000000000000008152600401610bf890612f6a565b60405180910390fd5b60005b600880549050811015610cc6578160088281548110610c2657610c25612db0565b5b90600052602060002090600402016003015403610cb357610cb260088281548110610c5457610c53612db0565b5b906000526020600020906004020160000160009054906101000a900473ffffffffffffffffffffffffffffffffffffffff1660088381548110610c9a57610c99612db0565b5b9060005260206000209060040201600101548461140b565b5b8080610cbe90612eb0565b915050610c04565b5050565b60078181548110610cda57600080fd5b90600052602060002090600302016000915090508060000160009054906101000a900473ffffffffffffffffffffffffffffffffffffffff16908060010154908060020154905083565b60006007600081548110610d3b57610d3a612db0565b5b906000526020600020906003020160020154905090565b60015481565b600960009054906101000a900473ffffffffffffffffffffffffffffffffffffffff1673ffffffffffffffffffffffffffffffffffffffff163373ffffffffffffffffffffffffffffffffffffffff1614610de8576040517f08c379a0000000000000000000000000000000000000000000000000000000008152600401610ddf90612f6a565b60405180910390fd5b60005b600680549050811015610f03578173ffffffffffffffffffffffffffffffffffffffff1660068281548110610e2357610e22612db0565b5b906000526020600020906004020160000160009054906101000a900473ffffffffffffffffffffffffffffffffffffffff1673ffffffffffffffffffffffffffffffffffffffff1603610ef05760068181548110610e8457610e83612db0565b5b9060005260206000209060040201600080820160006101000a81549073ffffffffffffffffffffffffffffffffffffffff02191690556001820160009055600282016000905560038201600090555050600080815480929190610ee690612f8a565b9190505550610f03565b8080610efb90612eb0565b915050610deb565b5050565b60088181548110610f1757600080fd5b90600052602060002090600402016000915090508060000160009054906101000a900473ffffffffffffffffffffffffffffffffffffffff1690806001015490806002018054610f6690612fe2565b80601f0160208091040260200160405190810160405280929190818152602001828054610f9290612fe2565b8015610fdf5780601f10610fb457610100808354040283529160200191610fdf565b820191906000526020600020905b815481529060010190602001808311610fc257829003601f168201915b5050505050908060030154905084565b60068181548110610fff57600080fd5b90600052602060002090600402016000915090508060000160009054906101000a900473ffffffffffffffffffffffffffffffffffffffff16908060010154908060020154908060030154905084565b61105761075e565b821161120257600080600090505b6006805490508110156111fb573373ffffffffffffffffffffffffffffffffffffffff166006828154811061109d5761109c612db0565b5b906000526020600020906004020160000160009054906101000a900473ffffffffffffffffffffffffffffffffffffffff1673ffffffffffffffffffffffffffffffffffffffff16036111e857600681815481106110fe576110fd612db0565b5b9060005260206000209060040201600301549150600860405180608001604052803373ffffffffffffffffffffffffffffffffffffffff16815260200186815260200185815260200184815250908060018154018082558091505060019003906000526020600020906004020160009091909190915060008201518160000160006101000a81548173ffffffffffffffffffffffffffffffffffffffff021916908373ffffffffffffffffffffffffffffffffffffffff1602179055506020820151816001015560408201518160020190816111da91906131bf565b506060820151816003015550505b80806111f390612eb0565b915050611065565b505061123d565b6040517f08c379a000000000000000000000000000000000000000000000000000000000815260040161123490613303565b60405180910390fd5b5050565b600960009054906101000a900473ffffffffffffffffffffffffffffffffffffffff1673ffffffffffffffffffffffffffffffffffffffff163373ffffffffffffffffffffffffffffffffffffffff16146112d1576040517f08c379a00000000000000000000000000000000000000000000000000000000081526004016112c890612f6a565b60405180910390fd5b6002546000541115611318576040517f08c379a000000000000000000000000000000000000000000000000000000000815260040161130f90613395565b60405180910390fd5b600660405180608001604052808573ffffffffffffffffffffffffffffffffffffffff1681526020018481526020016000815260200183815250908060018154018082558091505060019003906000526020600020906004020160009091909190915060008201518160000160006101000a81548173ffffffffffffffffffffffffffffffffffffffff021916908373ffffffffffffffffffffffffffffffffffffffff16021790555060208201518160010155604082015181600201556060820151816003015550506000808154809291906113f490612eb0565b9190505550505050565b6000804790508091505090565b600960009054906101000a900473ffffffffffffffffffffffffffffffffffffffff1673ffffffffffffffffffffffffffffffffffffffff163373ffffffffffffffffffffffffffffffffffffffff161461149b576040517f08c379a000000000000000000000000000000000000000000000000000000000815260040161149290612f6a565b60405180910390fd5b814710156114de576040517f08c379a00000000000000000000000000000000000000000000000000000000081526004016114d590613401565b60405180910390fd5b600082905060005b6006805490508110156116a4578473ffffffffffffffffffffffffffffffffffffffff166006828154811061151e5761151d612db0565b5b906000526020600020906004020160000160009054906101000a900473ffffffffffffffffffffffffffffffffffffffff1673ffffffffffffffffffffffffffffffffffffffff161480156115975750826006828154811061158357611582612db0565b5b906000526020600020906004020160030154145b156116915781600682815481106115b1576115b0612db0565b5b906000526020600020906004020160020154106116055781600682815481106115dd576115dc612db0565b5b906000526020600020906004020160020160008282546115fd9190613421565b925050819055505b816006828154811061161a57611619612db0565b5b90600052602060002090600402016002015411611690576006818154811061164557611644612db0565b5b906000526020600020906004020160020154826116629190613421565b915060006006828154811061167a57611679612db0565b5b9060005260206000209060040201600201819055505b5b808061169c90612eb0565b9150506114e6565b506000805b6006805490508110156117a857600681815481106116ca576116c9612db0565b5b906000526020600020906004020160010154826116e79190613455565b91508573ffffffffffffffffffffffffffffffffffffffff166006828154811061171457611713612db0565b5b906000526020600020906004020160000160009054906101000a900473ffffffffffffffffffffffffffffffffffffffff1673ffffffffffffffffffffffffffffffffffffffff1603611795576006818154811061177557611774612db0565b5b906000526020600020906004020160010154826117929190613421565b91505b80806117a090612eb0565b9150506116a9565b50600081836117b79190612e3d565b905060005b6006805490508110156119c3578673ffffffffffffffffffffffffffffffffffffffff16600682815481106117f4576117f3612db0565b5b906000526020600020906004020160000160009054906101000a900473ffffffffffffffffffffffffffffffffffffffff1673ffffffffffffffffffffffffffffffffffffffff16036119b0578673ffffffffffffffffffffffffffffffffffffffff166108fc879081150290604051600060405180830381858888f19350505050158015611887573d6000803e3d6000fd5b5060005b6006805490508110156119ae578773ffffffffffffffffffffffffffffffffffffffff16600682815481106118c3576118c2612db0565b5b906000526020600020906004020160000160009054906101000a900473ffffffffffffffffffffffffffffffffffffffff1673ffffffffffffffffffffffffffffffffffffffff161461199b57826006828154811061192557611924612db0565b5b9060005260206000209060040201600101546119419190612e6e565b6006828154811061195557611954612db0565b5b9060005260206000209060040201600201546119719190613421565b6006828154811061198557611984612db0565b5b9060005260206000209060040201600201819055505b80806119a690612eb0565b91505061188b565b505b80806119bb90612eb0565b9150506117bc565b50505050505050565b6000806064600354846119df9190612e6e565b6119e99190612e3d565b836119f49190613455565b905080915050919050565b60005481565b6060600960009054906101000a900473ffffffffffffffffffffffffffffffffffffffff1673ffffffffffffffffffffffffffffffffffffffff163373ffffffffffffffffffffffffffffffffffffffff1614611a97576040517f08c379a0000000000000000000000000000000000000000000000000000000008152600401611a8e90612f6a565b60405180910390fd5b6008805480602002602001604051908101604052809291908181526020016000905b82821015611be757838290600052602060002090600402016040518060800160405290816000820160009054906101000a900473ffffffffffffffffffffffffffffffffffffffff1673ffffffffffffffffffffffffffffffffffffffff1673ffffffffffffffffffffffffffffffffffffffff16815260200160018201548152602001600282018054611b4c90612fe2565b80601f0160208091040260200160405190810160405280929190818152602001828054611b7890612fe2565b8015611bc55780601f10611b9a57610100808354040283529160200191611bc5565b820191906000526020600020905b815481529060010190602001808311611ba857829003601f168201915b5050505050815260200160038201548152505081526020019060010190611ab9565b50505050905090565b600080829050828411611c0d57600284611c0a9190612e6e565b90505b828410611c18578290505b8091505092915050565b600960009054906101000a900473ffffffffffffffffffffffffffffffffffffffff1673ffffffffffffffffffffffffffffffffffffffff163373ffffffffffffffffffffffffffffffffffffffff1614611cb2576040517f08c379a0000000000000000000000000000000000000000000000000000000008152600401611ca990612f6a565b60405180910390fd5b80471015611cf5576040517f08c379a0000000000000000000000000000000000000000000000000000000008152600401611cec90613401565b60405180910390fd5b3373ffffffffffffffffffffffffffffffffffffffff166108fc829081150290604051600060405180830381858888f19350505050158015611d3b573d6000803e3d6000fd5b5050565b600060015460005410158015611d59575060025460005411155b15611d675760019050611dc6565b6001546000541080611d7d575060025460005410155b15611d8b5760029050611dc6565b6040517f08c379a0000000000000000000000000000000000000000000000000000000008152600401611dbd906134d5565b60405180910390fd5b90565b600960009054906101000a900473ffffffffffffffffffffffffffffffffffffffff1673ffffffffffffffffffffffffffffffffffffffff163373ffffffffffffffffffffffffffffffffffffffff1614611e59576040517f08c379a0000000000000000000000000000000000000000000000000000000008152600401611e5090612f6a565b60405180910390fd5b600082036120385760005b600780549050811015612036578173ffffffffffffffffffffffffffffffffffffffff1660078281548110611e9c57611e9b612db0565b5b906000526020600020906003020160000160009054906101000a900473ffffffffffffffffffffffffffffffffffffffff1673ffffffffffffffffffffffffffffffffffffffff16036120235760076001600780549050611efd9190613421565b81548110611f0e57611f0d612db0565b5b906000526020600020906003020160078281548110611f3057611f2f612db0565b5b90600052602060002090600302016000820160009054906101000a900473ffffffffffffffffffffffffffffffffffffffff168160000160006101000a81548173ffffffffffffffffffffffffffffffffffffffff021916908373ffffffffffffffffffffffffffffffffffffffff16021790555060018201548160010155600282015481600201559050506007805480611fce57611fcd6134f5565b5b6001900381819060005260206000209060030201600080820160006101000a81549073ffffffffffffffffffffffffffffffffffffffff02191690556001820160009055600282016000905550509055612036565b808061202e90612eb0565b915050611e64565b505b600182036122b15760005b6007805490508110156122af578173ffffffffffffffffffffffffffffffffffffffff166007828154811061207b5761207a612db0565b5b906000526020600020906003020160000160009054906101000a900473ffffffffffffffffffffffffffffffffffffffff1673ffffffffffffffffffffffffffffffffffffffff160361229c57612162600782815481106120df576120de612db0565b5b906000526020600020906003020160000160009054906101000a900473ffffffffffffffffffffffffffffffffffffffff166007838154811061212557612124612db0565b5b9060005260206000209060030201600101546007848154811061214b5761214a612db0565b5b906000526020600020906003020160020154611241565b600760016007805490506121769190613421565b8154811061218757612186612db0565b5b9060005260206000209060030201600782815481106121a9576121a8612db0565b5b90600052602060002090600302016000820160009054906101000a900473ffffffffffffffffffffffffffffffffffffffff168160000160006101000a81548173ffffffffffffffffffffffffffffffffffffffff021916908373ffffffffffffffffffffffffffffffffffffffff16021790555060018201548160010155600282015481600201559050506007805480612247576122466134f5565b5b6001900381819060005260206000209060030201600080820160006101000a81549073ffffffffffffffffffffffffffffffffffffffff021916905560018201600090556002820160009055505090556122af565b80806122a790612eb0565b915050612043565b505b5050565b6000600354905060003490506000606483836122d19190612e6e565b6122db9190612e3d565b826122e69190613421565b905060005b6006805490508110156123e8573373ffffffffffffffffffffffffffffffffffffffff166006828154811061232357612322612db0565b5b906000526020600020906004020160000160009054906101000a900473ffffffffffffffffffffffffffffffffffffffff1673ffffffffffffffffffffffffffffffffffffffff16036123d557816006828154811061238557612384612db0565b5b906000526020600020906004020160020160008282546123a59190613455565b9250508190555081836123b89190613421565b600560008282546123c99190613455565b925050819055506123e8565b80806123e090612eb0565b9150506122eb565b50505050565b6000600554905090565b60035481565b60606006805480602002602001604051908101604052809291908181526020016000905b828210156124c857838290600052602060002090600402016040518060800160405290816000820160009054906101000a900473ffffffffffffffffffffffffffffffffffffffff1673ffffffffffffffffffffffffffffffffffffffff1673ffffffffffffffffffffffffffffffffffffffff168152602001600182015481526020016002820154815260200160038201548152505081526020019060010190612422565b50505050905090565b6000604051905090565b600080fd5b600080fd5b6000819050919050565b6124f8816124e5565b811461250357600080fd5b50565b600081359050612515816124ef565b92915050565b60008060408385031215612532576125316124db565b5b600061254085828601612506565b925050602061255185828601612506565b9150509250929050565b612564816124e5565b82525050565b600060208201905061257f600083018461255b565b92915050565b600081519050919050565b600082825260208201905092915050565b6000819050602082019050919050565b600073ffffffffffffffffffffffffffffffffffffffff82169050919050565b60006125dc826125b1565b9050919050565b6125ec816125d1565b82525050565b6125fb816124e5565b82525050565b60608201600082015161261760008501826125e3565b50602082015161262a60208501826125f2565b50604082015161263d60408501826125f2565b50505050565b600061264f8383612601565b60608301905092915050565b6000602082019050919050565b600061267382612585565b61267d8185612590565b9350612688836125a1565b8060005b838110156126b95781516126a08882612643565b97506126ab8361265b565b92505060018101905061268c565b5085935050505092915050565b600060208201905081810360008301526126e08184612668565b905092915050565b6000602082840312156126fe576126fd6124db565b5b600061270c84828501612506565b91505092915050565b61271e816125d1565b82525050565b60006060820190506127396000830186612715565b612746602083018561255b565b612753604083018461255b565b949350505050565b612764816125d1565b811461276f57600080fd5b50565b6000813590506127818161275b565b92915050565b60006020828403121561279d5761279c6124db565b5b60006127ab84828501612772565b91505092915050565b600081519050919050565b600082825260208201905092915050565b60005b838110156127ee5780820151818401526020810190506127d3565b60008484015250505050565b6000601f19601f8301169050919050565b6000612816826127b4565b61282081856127bf565b93506128308185602086016127d0565b612839816127fa565b840191505092915050565b60006080820190506128596000830187612715565b612866602083018661255b565b8181036040830152612878818561280b565b9050612887606083018461255b565b95945050505050565b60006080820190506128a56000830187612715565b6128b2602083018661255b565b6128bf604083018561255b565b6128cc606083018461255b565b95945050505050565b600080fd5b600080fd5b7f4e487b7100000000000000000000000000000000000000000000000000000000600052604160045260246000fd5b612917826127fa565b810181811067ffffffffffffffff82111715612936576129356128df565b5b80604052505050565b60006129496124d1565b9050612955828261290e565b919050565b600067ffffffffffffffff821115612975576129746128df565b5b61297e826127fa565b9050602081019050919050565b82818337600083830152505050565b60006129ad6129a88461295a565b61293f565b9050828152602081018484840111156129c9576129c86128da565b5b6129d484828561298b565b509392505050565b600082601f8301126129f1576129f06128d5565b5b8135612a0184826020860161299a565b91505092915050565b60008060408385031215612a2157612a206124db565b5b6000612a2f85828601612506565b925050602083013567ffffffffffffffff811115612a5057612a4f6124e0565b5b612a5c858286016129dc565b9150509250929050565b600080600060608486031215612a7f57612a7e6124db565b5b6000612a8d86828701612772565b9350506020612a9e86828701612506565b9250506040612aaf86828701612506565b9150509250925092565b600081519050919050565b600082825260208201905092915050565b6000819050602082019050919050565b600082825260208201905092915050565b6000612b01826127b4565b612b0b8185612ae5565b9350612b1b8185602086016127d0565b612b24816127fa565b840191505092915050565b6000608083016000830151612b4760008601826125e3565b506020830151612b5a60208601826125f2565b5060408301518482036040860152612b728282612af6565b9150506060830151612b8760608601826125f2565b508091505092915050565b6000612b9e8383612b2f565b905092915050565b6000602082019050919050565b6000612bbe82612ab9565b612bc88185612ac4565b935083602082028501612bda85612ad5565b8060005b85811015612c165784840389528151612bf78582612b92565b9450612c0283612ba6565b925060208a01995050600181019050612bde565b50829750879550505050505092915050565b60006020820190508181036000830152612c428184612bb3565b905092915050565b60008060408385031215612c6157612c606124db565b5b6000612c6f85828601612506565b9250506020612c8085828601612772565b9150509250929050565b600081519050919050565b600082825260208201905092915050565b6000819050602082019050919050565b608082016000820151612ccc60008501826125e3565b506020820151612cdf60208501826125f2565b506040820151612cf260408501826125f2565b506060820151612d0560608501826125f2565b50505050565b6000612d178383612cb6565b60808301905092915050565b6000602082019050919050565b6000612d3b82612c8a565b612d458185612c95565b9350612d5083612ca6565b8060005b83811015612d81578151612d688882612d0b565b9750612d7383612d23565b925050600181019050612d54565b5085935050505092915050565b60006020820190508181036000830152612da88184612d30565b905092915050565b7f4e487b7100000000000000000000000000000000000000000000000000000000600052603260045260246000fd5b7f4e487b7100000000000000000000000000000000000000000000000000000000600052601260045260246000fd5b7f4e487b7100000000000000000000000000000000000000000000000000000000600052601160045260246000fd5b6000612e48826124e5565b9150612e53836124e5565b925082612e6357612e62612ddf565b5b828204905092915050565b6000612e79826124e5565b9150612e84836124e5565b9250828202612e92816124e5565b91508282048414831517612ea957612ea8612e0e565b5b5092915050565b6000612ebb826124e5565b91507fffffffffffffffffffffffffffffffffffffffffffffffffffffffffffffffff8203612eed57612eec612e0e565b5b600182019050919050565b7f536f6d656e7465206f2070726f70726965746172696f20646f20636f6e74726160008201527f746f20706f646520657865637574617220657374612066756e63616f2e000000602082015250565b6000612f54603d836127bf565b9150612f5f82612ef8565b604082019050919050565b60006020820190508181036000830152612f8381612f47565b9050919050565b6000612f95826124e5565b915060008203612fa857612fa7612e0e565b5b600182039050919050565b7f4e487b7100000000000000000000000000000000000000000000000000000000600052602260045260246000fd5b60006002820490506001821680612ffa57607f821691505b60208210810361300d5761300c612fb3565b5b50919050565b60008190508160005260206000209050919050565b60006020601f8301049050919050565b600082821b905092915050565b6000600883026130757fffffffffffffffffffffffffffffffffffffffffffffffffffffffffffffffff82613038565b61307f8683613038565b95508019841693508086168417925050509392505050565b6000819050919050565b60006130bc6130b76130b2846124e5565b613097565b6124e5565b9050919050565b6000819050919050565b6130d6836130a1565b6130ea6130e2826130c3565b848454613045565b825550505050565b600090565b6130ff6130f2565b61310a8184846130cd565b505050565b5b8181101561312e576131236000826130f7565b600181019050613110565b5050565b601f8211156131735761314481613013565b61314d84613028565b8101602085101561315c578190505b61317061316885613028565b83018261310f565b50505b505050565b600082821c905092915050565b600061319660001984600802613178565b1980831691505092915050565b60006131af8383613185565b9150826002028217905092915050565b6131c8826127b4565b67ffffffffffffffff8111156131e1576131e06128df565b5b6131eb8254612fe2565b6131f6828285613132565b600060209050601f8311600181146132295760008415613217578287015190505b61322185826131a3565b865550613289565b601f19841661323786613013565b60005b8281101561325f5784890151825560018201915060208501945060208101905061323a565b8683101561327c5784890151613278601f891682613185565b8355505b6001600288020188555050505b505050505050565b7f4120736f6c696369746163616f2065786563656465206f206c696d697465206d60008201527f6178696d6f20696e64656e697a6176656c000000000000000000000000000000602082015250565b60006132ed6031836127bf565b91506132f882613291565b604082019050919050565b6000602082019050818103600083015261331c816132e0565b9050919050565b7f4f206e756d65726f206d6178696d6f206465207573756172696f73206a61206660008201527f6f69206174696e6769646f2e0000000000000000000000000000000000000000602082015250565b600061337f602c836127bf565b915061338a82613323565b604082019050919050565b600060208201905081810360008301526133ae81613372565b9050919050565b7f53616c646f20696e737566696369656e7465206e6f20636f6e747261746f0000600082015250565b60006133eb601e836127bf565b91506133f6826133b5565b602082019050919050565b6000602082019050818103600083015261341a816133de565b9050919050565b600061342c826124e5565b9150613437836124e5565b925082820390508181111561344f5761344e612e0e565b5b92915050565b6000613460826124e5565b915061346b836124e5565b925082820190508082111561348357613482612e0e565b5b92915050565b7f4572726f20616f20766572696669636172206f20636f6e747261746f00000000600082015250565b60006134bf601c836127bf565b91506134ca82613489565b602082019050919050565b600060208201905081810360008301526134ee816134b2565b9050919050565b7f4e487b7100000000000000000000000000000000000000000000000000000000600052603160045260246000fdfea2646970667358221220d37e78cea176cc9fd8ba4196619d7d5b8df2b7dbd99b7c7f908bc589e607dd9364736f6c63430008130033",
  "immutableReferences": {},
  "source": "//SPDX-License-Identifier: MIT\r\npragma solidity ^0.8.0;\r\n\r\n//importao de bilioteca, a qual ir fornecer funes herdadas de um contrato\r\n//o qual ir possibilitar a realizao de transaes\r\nimport \"@openzeppelin/contracts/token/ERC20/IERC20.sol\";\r\n// Contrato inteligente / Smart contract\r\ncontract MeuContrato {\r\n    \r\n    // Armazena a quantidade de usurios atualmente no contrato\r\n    uint public quantUsuario;\r\n    \r\n    // Armazena a quantidade mnima e mxima de usurios permitida por contrato\r\n    uint public minPessoas;\r\n    uint public maxPessoas;\r\n    \r\n    // Armazena a taxa de administrao do contrato\r\n    uint public taxaAdmin;\r\n        \r\n    //referente a user stories de nmero 5, as variveis abaixo suprem partes dos requisitos desta user storie, ao definir uma carteira central para receber as taxas de administrao do contrato.\r\n    // Carteira central que ir armazenar informaes sobre a carteira da *Coover*\r\n    address carteiraCentral;\r\n    uint fundosAdm;\r\n\r\n    // Armazena a lista de carteiras de usurios\r\n    Carteira[] public carteira;\r\n    \r\n    // Estrutura para armazenar a Carteira de um *Usurio*\r\n    struct Carteira {\r\n        address carteiraUsuario;\r\n        uint valorAparelho;\r\n        uint saldo;\r\n        uint IMEI;\r\n    }\r\n\r\n    // Armazena a lista de usuarios a serem aprovados\r\n    Aprovar[] public aprovar;\r\n\r\n    // Estrutura para armazenar um pedido de entrada no smart contract\r\n    struct Aprovar {\r\n        address carteiraUsuario;\r\n        uint valorAparelho;\r\n        uint IMEI;\r\n    }\r\n    // Estrutura para armazenar um pedido de indenizacao do smart contract\r\n   Indenizacao[] public indenizacao;\r\n    struct Indenizacao{\r\n        address carteiraUsuario;\r\n        uint valorPedido;\r\n        string justificativa;\r\n        uint imeiSolicitacao;\r\n    }\r\n    \r\n    // Endereo do proprietrio do contrato, que  o ADMINISTRADOR [IMPORTANTE: apenas o proprietrio pode adicionar e remover usurios]\r\n    address admin; // nota-se que encurtamos o nome para ser melhor para o cdigo.\r\n    \r\n    // Construtor do contrato que define a quantidade mnima e mxima de usurios, alm de definir o dono do contrato e a taxa de administrao\r\n    constructor(uint _minPessoas, uint _maxPessoas, uint _taxaAdmin) { \r\n        quantUsuario = 0;\r\n        admin = msg.sender;\r\n        minPessoas = _minPessoas;\r\n        maxPessoas = _maxPessoas;\r\n        taxaAdmin = _taxaAdmin;\r\n        carteiraCentral = payable(msg.sender);\r\n        fundosAdm = 0;\r\n    }\r\n        \r\n        //referente a user storie de nmero 4, o cdigo abaixo supre a user stories de nmero 4, pois ao criar o modificador 'apenasAdmin' que cede a permisso,\r\n        //apenas ao dono do contrato / proprietrio.  possvel criar o nvel de permisso que o gerente de seguros precisa, que  prevista na user storie.\r\n        //modificador que da a permisso apenas para o dono do contrato executar uma funo\r\n        modifier apenasAdmin() {\r\n        require(msg.sender == admin, \"Somente o proprietario do contrato pode executar esta funcao.\");\r\n        _;\r\n    }\r\n\r\n    function solicitacaoAprovacao(uint valorAparelho, uint imei) public {\r\n        // Adiciona o usurio  lista de carteiras com seu saldo e valor do aparelho celular\r\n\r\n        aprovar.push(Aprovar(msg.sender, valorAparelho, imei));  \r\n    }   \r\n\r\n     function verSolicitacao() external view apenasAdmin returns(Aprovar[] memory) {\r\n         // retorna a lista de suarios a serem aprovados\r\n         return aprovar;\r\n     }\r\n\r\n\r\n//funo para aprovar solicitao de alguem para entra no contrato\r\nfunction aprovarSolicitacao(uint resposta, address usuario) public apenasAdmin{\r\n    // se a resposta for no remove a pessoa da lista de espera\r\n    if (resposta == 0){\r\n        for (uint i = 0; i < aprovar.length; i++) {\r\n            if (aprovar[i].carteiraUsuario == usuario){\r\n                // Move o ltimo elemento do array para o ndice vazio\r\n                aprovar[i] = aprovar[aprovar.length - 1];\r\n                aprovar.pop();\r\n                break;\r\n            }\r\n        }\r\n    }\r\n    // se a resposta for sim aceita a  pessoa no contrato\r\n    if (resposta == 1){\r\n        for (uint i = 0; i < aprovar.length; i++) {\r\n            if (aprovar[i].carteiraUsuario == usuario){\r\n                adicionarUsuario(aprovar[i].carteiraUsuario, aprovar[i].valorAparelho ,aprovar[i].IMEI);\r\n                // Move o ltimo elemento do array para o ndice vazio\r\n                aprovar[i] = aprovar[aprovar.length - 1];\r\n                aprovar.pop();\r\n                break;\r\n            }\r\n        }\r\n    }\r\n}\r\n\r\n\r\n    \r\n    // Adicionar um novo usurio ao projeto\r\n    function adicionarUsuario(address cliente,uint valorAssegurado, uint imei) public apenasAdmin {\r\n        \r\n        // Verifica se a quantidade mxima de usurios j foi atingida\r\n        require(quantUsuario <= maxPessoas, \"O numero maximo de usuarios ja foi atingido.\");\r\n        \r\n        // Adiciona o usurio  lista de carteiras com seu saldo e valor do aparelho celular\r\n        carteira.push(Carteira(payable(cliente), valorAssegurado, 0, imei));\r\n        \r\n        // Incrementa a quantidade de usurios\r\n        quantUsuario++;\r\n    }\r\n\r\n    //funo para uma carteira adicionar dinheiro no smart contract\r\n\r\n    function adicionarDinheiro() public payable{\r\n\r\n        //armazena a taxa do adminstrador\r\n        uint taxa = taxaAdmin;\r\n        \r\n        //armazena o valor do deposito\r\n        uint valorDeposito = msg.value;\r\n        \r\n        //armazena o valor que o suario deve receber, uma vez calculada a taxa adiministrativa\r\n        uint valorUsuario = valorDeposito - (valorDeposito * taxa / 100);\r\n        \r\n        //passa pelas carteiras de membros do contrato\r\n        for (uint i = 0; i < carteira.length; i++) {\r\n        \r\n            // Verifica se a carteira do usurio corresponde ao endereo de quem chamou a funo\r\n            if (carteira[i].carteiraUsuario == msg.sender) {\r\n        \r\n            // Adiciona os fundos a carteira do suario, tirando a taxa adiministrativa e a tranferindo para a Coover\r\n            carteira[i].saldo += valorUsuario;\r\n            fundosAdm += valorDeposito - valorUsuario;\r\n            \r\n            // Sai do loop\r\n            break;\r\n            }\r\n        }\r\n    }\r\n    \r\n    // Funo para ver o saldo da carteira que est chamando a funo\r\n    // Exemplo: um usurio quer ver no front, o saldo da carteira dele, ele poder visualizar o saldo da carteira dele, \r\n    // pois a funo ir verificar se o endereo da carteira que est chamando a funo  igual ao endereo da carteira do usurio \r\n    function verSaldo() external view returns(uint){\r\n        for (uint i = 0; i < carteira.length; i++) {\r\n        \r\n            // Verifica se a carteira do usurio corresponde ao endereo fornecido\r\n            if (carteira[i].carteiraUsuario == msg.sender) {\r\n        \r\n            // Retorna o saldo do suario\r\n            return carteira[i].saldo;\r\n            }\r\n        }\r\n    }\r\n    \r\n    // Funo para ver quanto de dinheiro tem no contrato, em suma, visualizar o saldo do contrato.\r\n    function contratoSaldo() public view returns (uint) {\r\n    uint balance = address(this).balance; // retorna quanto de fundo o contrato possui\r\n    return  balance;\r\n    }\r\n    \r\n    // referente a user storie 6, o cdigo abaixo, supre parte da user stories de nmero 6, pois ao criar uma funo que permita visualizar carteiras que fazem parte do contrato,\r\n    //  um passo essencial para permitir que o usurio possa visualizar as pessoas que fazem parte de seu contrato, assim como previsto pela user storie\r\n    // funo que permite visualizar carteiras participantes do contrato\r\n    function visualizarCarteiras() public view returns (Carteira[] memory) {\r\n        return carteira;\r\n    }\r\n    \r\n    // Funo para ver o saldo do administrador do contrato\r\n    function verSaldoAdm() external view returns(uint){\r\n        return fundosAdm;\r\n    }\r\n\r\n    // Funo para o administrador conseguir retirar taxas do contrato (retirar o valor que o administrador ganha, o qual j estar destinado a ele)\r\n    function retirarTaxas(uint256 quantidade) public apenasAdmin{\r\n        \r\n        //confere se o contrato tem dinheiro suficiente\r\n        require(address(this).balance >= quantidade, \"Saldo insuficiente no contrato\");\r\n        \r\n        //trafere o valor j \"separado\" das taxas cobradas para o adiministrador, quando chama esta funo\r\n        payable(msg.sender).transfer(quantidade);\r\n    }\r\n\r\n    //referente a user storie de nmero 10, o cdigo abaixo, supre parte da user stories de nmero 10, pois ao realizar a criao de uma funo que transfira dinheiro\r\n    //do fundo do smartcontract para outra carteira, gera a possibilidade do gestor de seguros realizar a transferncia de uma indenizao a um membro do contrato\r\n    //assim como previsto pela user storie\r\n    //funo para tranferir idenizao a um suario\r\n    // Funo para o administrador conseguir fornecer a indenizao a um membro do contrato\r\n    function indenizar(address _indenizado,uint256 valorIndenizacao, uint _IMEI) public apenasAdmin{\r\n    \r\n        //confere se o contrato tem dinheiro suficiente\r\n        require(address(this).balance >= valorIndenizacao, \"Saldo insuficiente no contrato\");\r\n        //valor indenizado\r\n        uint valorID = valorIndenizacao; \r\n\r\n\r\n        //confere retira primeiro tudo o saldo de quem pediu a indenizao\r\n        for (uint i = 0; i < carteira.length; i++){\r\n            if (carteira[i].carteiraUsuario == _indenizado && carteira[i].IMEI == _IMEI){\r\n                if(carteira[i].saldo >= valorID){\r\n                    carteira[i].saldo -= valorID;\r\n                }\r\n                if(carteira[i].saldo <= valorID){\r\n                    valorID -= carteira[i].saldo;\r\n                    carteira[i].saldo = 0;\r\n                }\r\n            }\r\n        }\r\n            \r\n        //calcula quantos % do valor total dos aparelhos assegurados, a retirada representa\r\n        uint valorTotalAssegurado = 0;\r\n        \r\n        // passa pelas carteiras do contrato e soma o valor total dos aparelhos assegurados\r\n        for (uint i = 0; i < carteira.length; i++){ \r\n            valorTotalAssegurado += carteira[i].valorAparelho;\r\n            if (carteira[i].carteiraUsuario == _indenizado){\r\n                valorTotalAssegurado -= carteira[i].valorAparelho;\r\n            }\r\n        }\r\n\r\n        //calcula quanto deve ser retirado do saldo de cada usuario em %, do saldo de cada participante.\r\n        uint valorDecrecido = valorID / valorTotalAssegurado;\r\n        \r\n        //trafere o dinheiro para quem vai ser indenizado e diminui o valor relativo ao aparelho de cada usurio\r\n        for (uint i = 0; i < carteira.length; i++){\r\n            if (carteira[i].carteiraUsuario == _indenizado) {\r\n                payable(_indenizado).transfer(valorIndenizacao);\r\n                for (uint i = 0; i < carteira.length; i++){\r\n                    if (carteira[i].carteiraUsuario != _indenizado){\r\n                        carteira[i].saldo = carteira[i].saldo - (carteira[i].valorAparelho * valorDecrecido);\r\n                    }\r\n                }\r\n            }\r\n        }\r\n    }\r\n    //funcao para calcular o valor maximo que um suario pode pedir de idenizacao\r\n    //obs: o suario deve ter pelo menos 50% do valor do aparelho para indenizao maxima, abaixo disso sera propocional ao seu saldo\r\n    function maximoIndenizavel() public returns(uint){\r\n        uint maximoId;\r\n        for (uint i = 0; i < carteira.length; i++){\r\n            if (carteira[i].carteiraUsuario == msg.sender){\r\n                if(carteira[i].saldo >= carteira[i].valorAparelho/2){\r\n                    maximoId = carteira[i].valorAparelho;\r\n                }\r\n                if(carteira[i].saldo <= carteira[i].valorAparelho/2){\r\n                    maximoId = carteira[i].saldo*2;\r\n                }\r\n            }\r\n                return maximoId;    \r\n        }\r\n    }\r\n\r\n    //funo para enviar solicitacao de aprovacao de indenizacao\r\n    function solicitacaoIndenizacao(uint valorID,string memory justificativa) public {\r\n            // Adiciona o usurio  lista de carteiras que pediram indenizacao\r\n        if (valorID <= maximoIndenizavel()){\r\n            uint imeiDoPedido;\r\n            for (uint i = 0; i < carteira.length; i++){\r\n                //encontra o usuario e confere se o valor e possivel de ser indenizado, de acorodo com seu saldo restante\r\n                if (carteira[i].carteiraUsuario == msg.sender){\r\n                    imeiDoPedido = carteira[i].IMEI;\r\n                    indenizacao.push(Indenizacao(msg.sender, valorID, justificativa, imeiDoPedido));  \r\n                }\r\n            }  \r\n        }\r\n        else {\r\n            revert(\"A solicitacao execede o limite maximo indenizavel\");\r\n        }\r\n    }  \r\n\r\n    //funo para ver pedidos de idenizacao\r\n     function verSolicitacaoIndenizacao() external view apenasAdmin returns(Indenizacao[] memory) {\r\n         //retorna a lista de aprovao de solicitacao\r\n         return indenizacao;\r\n     }\r\n\r\n    \r\n    //funo para aprovar a solicitao de idenizacao\r\n    function aprovarIndenizacao(uint imeiDaSolicitacao) public apenasAdmin{\r\n        //passa por todos os pedidos e executa o que foi aprovado\r\n        for (uint i = 0; i < indenizacao.length; i++){\r\n            if (indenizacao[i].imeiSolicitacao == imeiDaSolicitacao){\r\n            indenizar(indenizacao[i].carteiraUsuario, indenizacao[i].valorPedido, imeiDaSolicitacao);  \r\n            }\r\n        }\r\n    }\r\n \r\n\r\n\r\n    // Funo para remover um usurio do projeto\r\n    function removerUsuario(address _usuario) public apenasAdmin {\r\n        \r\n        // Verifica cada carteira do projeto\r\n        for (uint i = 0; i < carteira.length; i++) {\r\n            \r\n            // Verifica se a carteira do usurio corresponde ao endereo fornecido\r\n            if (carteira[i].carteiraUsuario == _usuario) {\r\n            \r\n            // Remove o usurio da lista de carteiras\r\n            delete carteira[i];\r\n            \r\n            // Atualiza o nmero de usurios\r\n            quantUsuario--;\r\n            \r\n                // Sai do loop\r\n                break;\r\n            }\r\n        }\r\n    }\r\n\r\n    //calcula quanto o suario ira efetivamente depositar apos a retirada da taxa\r\n    function valorPosTaxa(uint valor) external view returns(uint) {\r\n        uint valorComTaxa = valor + (valor * taxaAdmin / 100);\r\n        return valorComTaxa;\r\n    }   \r\n\r\n    \r\n    // corresponde user storie 8, o cdigo abaixo, supre parte da user stories de nmero 8, pois ao criar condies que verificam se o contrato est vlido e\r\n    // se possui o nmero necessrio de pessoas para continuar, pode ser usado para garantir que o contrato s seja executado caso atenda as condies para ser iniciado\r\n    // Verifica a viabilidade do contrato\r\n    function viabilidadeContrato() public view returns (uint) {\r\n        \r\n        //Verifica se o contrato est vlido mas no possui o nmero ideal de pessoas para funcionar\r\n        if (quantUsuario >= minPessoas  && quantUsuario <= maxPessoas) {\r\n            return 1; // Contrato Ativo\r\n            \r\n        //Verifica se o contrato est vlido mas no possui o nmero de pessoas ideal para funcionar\r\n        } else if (quantUsuario < minPessoas || quantUsuario >= maxPessoas) {\r\n            return 2; // Contrato em Progresso        \r\n        } else {\r\n            revert(\"Erro ao verificar o contrato\");\r\n        }\r\n    }\r\n    //Area de testes\r\n\r\n    //funcaoes para o teste 3, para ver se um usuario foi registrado corretamente na lista de espera para entrar no contrato, cada uma retonando um atributo\r\n    function teste3A() public returns(uint) {\r\n        return aprovar[0].IMEI;\r\n    }\r\n        function teste3B() public returns(uint) {\r\n        return aprovar[0].valorAparelho;\r\n    }\r\n\r\n    //funcao para o teste 4, testar maximo indenizavel \r\n    function maximoIndenizavelParaTeste(uint saldo,uint valorAparelho) public returns(uint){\r\n        uint maximoId = valorAparelho;\r\n        if(saldo <= valorAparelho){\r\n            maximoId = saldo*2;\r\n        }\r\n        if(saldo >= valorAparelho){\r\n            maximoId = valorAparelho;\r\n        }\r\n        return maximoId; \r\n    }  \r\n} ",
  "sourcePath": "C:\\Users\\Inteli\\Desktop\\deploy\\contracts\\smartContract.sol",
  "compiler": {
    "name": "solc",
    "version": "0.8.19+commit.7dd6d404.Emscripten.clang"
  },
  "schemaVersion": "3.4.13",
  "updatedAt": "2023-03-23T17:55:44.151Z",
  "devdoc": {
    "kind": "dev",
    "methods": {},
    "version": 1
  },
  "userdoc": {
    "kind": "user",
    "methods": {},
    "version": 1
  }
}